:100000000BC024C023C022C021C020C01FC01EC0FE
:100010001DC01CC01BC057C011241FBECFEDCDBFDB
:1000200010E0A0E6B0E0E8EFF7E003C0C895319635
:100030000D92A236B107D1F720E0A2E6B0E001C0F0
:100040001D92AB36B207E1F788D0D4C3D9CF8093E5
:10005000680097B1907F97B997B1982B97B9089599
:100060008AB3887F8ABB87B18F7387B93E9A87E846
:1000700086B90895682F792F80E090E062D220E061
:1000800030E04AE754E4E8D220E030E040E85AE3C8
:10009000E3D22AE939E949EA50E4DED220E030E04F
:1000A00040E351E4D9D221D2862F972F089586B10B
:1000B000877B86B90895FBDF80E0C9DF86B188645D
:1000C00086B9789408951F920F920FB60F9211245B
:1000D0002F933F934F935F936F937F938F939F9350
:1000E000AF93BF93CF93DF93EF93FF93809168001B
:1000F0008330C8F4C0916800D0E084B195B1BADF14
:10010000EC2FFD2FEE0FFF1FEE59FF4F91838083E1
:100110008091680090E0019663E070E042D397DF41
:1001200086B1886486B9FF91EF91DF91CF91BF913D
:10013000AF919F918F917F916F915F914F913F917F
:100140002F910F900FBE0F901F90189580EF8ABBD4
:1001500080E487BB80E888BB0895F8DFA0D101D197
:100160007FDFA9DF2FEF83ED90E3215080409040A7
:10017000E1F700C00000C12CD12CE12CF12C80E46F
:10018000882E90E2992E8BB380588BBB80E757D195
:10019000C82FD92F83E753D1282F392F88B388252B
:1001A00088BB6090620070906300809164009091C1
:1001B000650080916600909167008C2F9D2F662DC1
:1001C000772DDDD2C82FD92F822F932F662D772D33
:1001D000D6D2082F192F81D1A82E81D1B82E662D05
:1001E000772D80E090E0ADD12AE939E949E451E486
:1001F00078D187FF11C0EC16FD0608F4B394CE1534
:10020000DF0508F4AA94C016D10608F4B3940C15BF
:100210001D0520F4BA9402C0B12CA12C8A2D59D10D
:100220008B2D59D18BB389258BBB2FEF81EE94E0B9
:10023000215080409040E1F700C00000C02ED12E38
:10024000EC2EFD2EA0CFC09AC29ABA9AB89A8FEF20
:100250008FB98AE28DB980EF8EB9089580916A00D6
:1002600008958EB94CE450E06BE221E430E0842F35
:10027000952F0197F1F76DB9B29BFECF822F932F87
:100280000197F1F76DB9769BF2CF8CE490E001977E
:10029000F1F78FB19FEF9FB9B89A0895C098C29AAD
:1002A000B29BFECF81E490E00197F1F7C09A8CE415
:1002B00090E00197F1F781E008950F931F93CF939A
:1002C000DF93162F21E020936A00E82FF92F208179
:1002D00020FD03C023E020936A00C29AB29BFECFA8
:1002E000ECE4F0E03197F1F7C098E1E4F0E0319709
:1002F000F1F7C298C09AC82FD92F0FEF80916A00EA
:100300008370C9F0C29888818FB980EFAADFB8984E
:100310008EEFA7DF90916A0080FF09C090FF02C0B6
:1003200086E001C085E080936A0080E015C09E7F72
:1003300090936A000BC0B89880EF93DF88831130E8
:1003400011F40FB901C01FB88EEF8BDF1150219649
:100350001111D4CFA3DF81E0DF91CF911F910F91D5
:10036000089571DF7BDF80950895CF93DF93CDB73C
:10037000DD27C151CDBF403108F04FE0880F8983A0
:10038000842FEC2FFD2F329607C0A62FB72F9D91FB
:100390006A2F7B2F919381508111F7CF642F6F5F6C
:1003A0008C2F9D2F0196498B88DF4989882311F076
:1003B000842F03C048DF52DF8095CF5ECDBFDF9131
:1003C000CF9108950F931F93CF93DF93CDB7DD2780
:1003D000C151CDBF062F172F403108F04FE090E0FC
:1003E000880F991F81608983842FEC2FFD2F32960F
:1003F00002C0119281508230E0F7642F8C2F9D2F24
:100400000196498B5ADF4989882379F0EC2FFD2F1B
:10041000319607C08191A02FB12F8D930A2F1B2FEA
:1004200041504111F7CF80E003C00DDF17DF809509
:10043000CF5ECDBFDF91CF911F910F9108951F9394
:10044000CF93DF9300D0CDB7DD27182F42E060E6D1
:1004500070E08BDF87FF03C02FEF3FEF18C08FE105
:1004600093E00197F1F700C0000041E069E670E019
:10047000812F7BDF87FDF0CF42E06C2F7D2F6F5FF8
:100480007F4F812F9FDF87FDE7CF29813A81822F20
:10049000932FCE5FCDBFDF91CF911F91089587B38A
:1004A0008A6087BB89B5836089BD8FE39CE901972A
:1004B000F1F700C0000089B5846089BD8FB5816007
:1004C0008FBD80B7816380BF8FEF8BBD1DBC1CBC0F
:1004D00008958DBD08958CBD08958DB508958CB592
:1004E00008956CD008F481E0089594D088F09F5767
:1004F00090F0B92F9927B751A0F0D1F0660F771F70
:10050000881F991F1AF0BA95C9F712C0B13081F04F
:100510009BD0B1E0089598C0672F782F8827B85FE7
:1005200039F0B93FCCF3869577956795B395D9F7B0
:100530003EF490958095709561957F4F8F4F9F4FBA
:100540000895E89409C097FB3EF4909580957095C6
:1005500061957F4F8F4F9F4F9923A9F0F92F96E90F
:10056000BB279395F695879577956795B795F11184
:10057000F8CFFAF4BB0F11F460FF1BC06F5F7F4F21
:100580008F4F9F4F16C0882311F096E911C0772333
:1005900021F09EE8872F762F05C0662371F096E83C
:1005A000862F70E060E02AF09A95660F771F881F0B
:1005B000DAF7880F9695879597F90895990F0008AF
:1005C000550FAA0BE0E8FEEF16161706E807F90725
:1005D000C0F012161306E407F50798F0621B730BC0
:1005E000840B950B39F40A2661F0232B242B252B41
:1005F00021F408950A2609F4A140A6958FEF811DE4
:10060000811D089557FD9058440F551F59F05F3FC5
:1006100071F04795880F97FB991F61F09F3F79F024
:1006200087950895121613061406551FF2CF4695A6
:10063000F1DF08C0161617061806991FF1CF869528
:100640007105610508940895E894BB27662777270C
:10065000862F972F97F908950AD080C071D028F07F
:1006600076D018F0952309F062C067C0EECFCADFDC
:10067000A8F39923D9F35523C9F3950F50E0551FDB
:10068000AA27EE27FF27BB2700240894679520F4AC
:10069000E20FF31FB41F0A1E220F331F441FAA1FAD
:1006A0006695A9F7779530F4F30FB41F0A1E121E52
:1006B00008F46395330F441FAA1F221F769599F7FC
:1006C000879520F4B40F0A1E121E631F440FAA1F41
:1006D000221F331F8695A9F7862F712D602D1124B7
:1006E0009F5750408AF0E1F088234AF0EE0FFF1F39
:1006F000BB1F661F771F881F91505040A9F79E3F70
:10070000510570F014C0A1CF5F3FECF3983EDCF3CD
:10071000869577956795B795F795E7959F5FC1F7AC
:10072000FE2B880F911D9695879597F9089597F957
:100730009F6780E870E060E008959FEF80EC089587
:1007400000240A94161617061806090608950024B0
:100750000A9412161306140605060895092E03942A
:10076000000C11F4882352F0BB0F40F4BF2B11F49E
:1007700060FF04C06F5F7F4F8F4F9F4F08955527D5
:10078000002480FF02C0060E571F660F771F6115F9
:10079000710521F096958795009799F7952F802DF3
:1007A000089597FB072E16F4009406D077FD08D025
:1007B0000BD007FC05D03EF4909581959F4F08958E
:1007C000709561957F4F0895AA1BBB1B51E107C02F
:1007D000AA1FBB1FA617B70710F0A61BB70B881FD1
:1007E000991F5A95A9F780959095682F792F8A2F90
:0807F0009B2F0895F894FFCF40
:0207F8000A00F5
:00000001FF
